:020000040800F2
:100000000000032061430008E1160008E316000821
:10001000E5160008E7160008E916000800000000D1
:10002000000000000000000000000000EB160008C7
:10003000ED16000800000000EF160008F116000899
:10004000B1430008B1430008B1430008B1430008C0
:10005000B1430008B1430008B1430008B1430008B0
:10006000B1430008B1430008B1430008B1430008A0
:10007000B1430008B1430008B1430008B143000890
:10008000B1430008B1430008B1430008B143000880
:10009000F9160008B1430008B1430008B143000855
:1000A000B1430008B1430008B1430008B143000860
:1000B000B1430008B143000809170008B143000824
:1000C000B1430008B1430008B1430008B143000840
:1000D000B143000819170008B1430008B1430008F4
:1000E000B1430008B1430008B1430008B143000820
:1000F000B1430008B143000829170008B1430008C4
:10010000B1430008B1430008B1430008B1430008FF
:10011000B1430008B1430008B14300083917000893
:10012000B1430008B143000849170008B143000873
:10013000B1430008B1430008B1430008B1430008CF
:10014000B1430008B1430008B1430008B1430008BF
:10015000B1430008B1430008B14300085917000833
:10016000B1430008B1430008B1430008B14300089F
:10017000B1430008B1430008B1430008000000008B
:10018000B1430008B1430008B1430008B14300087F
:10019000B1430008B1430008B1430008B14300086F
:0C01A0000000000000000000B143000857
:1001B00081F0004102E000BF83F0004330B54FEA18
:1001C00041044FEA430594EA050F08BF90EA020F85
:1001D0001FBF54EA000C55EA020C7FEA645C7FEA18
:1001E000655C00F0E2804FEA5454D4EB5555B8BF3B
:1001F0006D420CDD2C4480EA020281EA030382EAAC
:10020000000083EA010180EA020281EA0303362D3D
:1002100088BF30BD11F0004F4FEA01314FF4801C10
:100220004CEA113102D0404261EB410113F0004F22
:100230004FEA03334CEA133302D0524263EB4303D9
:1002400094EA050F00F0A780A4F10104D5F1200E77
:100250000DDB02FA0EFC22FA05F2801841F10001D2
:1002600003FA0EF2801843FA05F359410EE0A5F1A6
:1002700020050EF1200E012A03FA0EFC28BF4CF0D7
:10028000020C43FA05F3C01851EBE37101F000458D
:1002900007D54FF0000EDCF1000C7EEB00006EEB9A
:1002A0000101B1F5801F1BD3B1F5001F0CD3490824
:1002B0005FEA30004FEA3C0C04F101044FEA44527B
:1002C00012F5800F80F09A80BCF1004F08BF5FEA02
:1002D000500C50F1000041EB045141EA050130BDE2
:1002E0005FEA4C0C404141EB0101013C28BFB1F5F4
:1002F000801FE9D291F0000F04BF01460020B1FA3F
:1003000081F308BF2033A3F10B03B3F120020CDA11
:100310000C3208DD02F1140CC2F10C0201FA0CF0EF
:1003200021FA02F10CE002F11402D8BFC2F1200C54
:1003300001FA02F120FA0CFCDCBF41EA0C0190400A
:10034000E41AA2BF01EB0451294330BD6FEA040453
:100350001F3C1CDA0C340EDC04F11404C4F120023E
:1003600020FA04F001FA02F340EA030021FA04F350
:1003700045EA030130BDC4F10C04C4F1200220FAA7
:1003800002F001FA04F340EA0300294630BD21FAE5
:1003900004F0294630BD94F0000F83F4801306BFAB
:1003A00081F480110134013D4EE77FEA645C18BF9F
:1003B0007FEA655C29D094EA050F08BF90EA020F36
:1003C00005D054EA000C04BF1946104630BD91EA2E
:1003D000030F1EBF0021002030BD5FEA545C05D131
:1003E0004000494128BF41F0004130BD14F5800470
:1003F0003CBF01F5801130BD01F0004545F0FE41E4
:1004000041F470014FF0000030BD7FEA645C1ABF18
:10041000194610467FEA655C1CBF0B46024650EA4F
:10042000013406BF52EA033591EA030F41F400217B
:1004300030BD00BF90F0000F04BF0021704730B501
:100440004FF4806404F132044FF000054FF00001D6
:1004500050E700BF90F0000F04BF0021704730B597
:100460004FF4806404F1320410F0004548BF40426C
:100470004FF000013EE700BF42004FEAE2014FEAC1
:1004800031014FEA02701FBF12F07F4393F07F4F9C
:1004900081F06051704732F07F4208BF704793F09F
:1004A0007F4F04BF41F40021704730B54FF46074B2
:1004B00001F0004521F000411CE700BF50EA0102B5
:1004C00008BF704730B54FF000050AE050EA01025E
:1004D00008BF704730B511F0004502D5404261EBCE
:1004E00041014FF4806404F132045FEA915C3FF40F
:1004F000D8AE4FF003025FEADC0C18BF03325FEAAC
:10050000DC0C18BF033202EBDC02C2F1200300FA5C
:1005100003FC20FA02F001FA03FE40EA0E0021FA81
:1005200002F11444BDE600BF70B54FF0FF0C4CF46F
:10053000E06C1CEA11541DBF1CEA135594EA0C0F21
:1005400095EA0C0F00F0DEF82C4481EA030621EA5C
:100550004C5123EA4C5350EA013518BF52EA033597
:1005600041F4801143F4801338D0A0FB02CE4FF049
:100570000005E1FB02E506F00042E0FB03E54FF079
:100580000006E1FB03569CF0000F18BF4EF0010E71
:10059000A4F1FF04B6F5007F64F5407404D25FEA6D
:1005A0004E0E6D4146EB060642EAC62141EA555120
:1005B0004FEAC52040EA5E504FEACE2EB4F1FD0C62
:1005C00088BFBCF5E06F1ED8BEF1004F08BF5FEAE0
:1005D000500E50F1000041EB045170BD06F0004692
:1005E00046EA010140EA020081EA0301B4EB5C043F
:1005F000C2BFD4EB0C0541EA045170BD41F4801137
:100600004FF0000E013C00F3AB8014F1360FDEBF5B
:10061000002001F0004170BDC4F10004203C35DA37
:100620000C341BDC04F11404C4F1200500FA05F3BA
:1006300020FA04F001FA05F240EA020001F000425B
:1006400021F0004110EBD37021FA04F642EB0601D1
:100650005EEA430E08BF20EAD37070BDC4F10C04FB
:10066000C4F1200500FA04F320FA05F001FA04F2BF
:1006700040EA020001F0004110EBD37041F10001AB
:100680005EEA430E08BF20EAD37070BDC4F12005B6
:1006900000FA05F24EEA020E20FA04F301FA05F21E
:1006A00043EA020321FA04F001F0004121FA04F2C6
:1006B00020EA020000EBD3705EEA430E08BF20EA96
:1006C000D37070BD94F0000F0FD101F000464000D0
:1006D00041EB010111F4801F08BF013CF7D041EA52
:1006E000060195F0000F18BF704703F00046520056
:1006F00043EB030313F4801F08BF013DF7D043EA27
:100700000603704794EA0C0F0CEA135518BF95EADC
:100710000C0F0CD050EA410618BF52EA4306D1D163
:1007200081EA030101F000414FF0000070BD50EA82
:10073000410606BF1046194652EA430619D094EA0C
:100740000C0F02D150EA013613D195EA0C0F05D1F6
:1007500052EA03361CBF104619460AD181EA03014A
:1007600001F0004141F0FE4141F470014FF0000002
:1007700070BD41F0FE4141F4780170BD70B54FF09D
:10078000FF0C4CF4E06C1CEA11541DBF1CEA13551D
:1007900094EA0C0F95EA0C0F00F0A7F8A4EB0504FF
:1007A00081EA030E52EA03354FEA013100F08880F6
:1007B0004FEA03334FF0805545EA131343EA1263BF
:1007C0004FEA022245EA111545EA10654FEA002674
:1007D0000EF000419D4208BF964244F1FD0404F52D
:1007E000407402D25B084FEA3202B61A65EB030589
:1007F0005B084FEA32024FF480104FF4002CB6EB46
:10080000020E75EB030E22BFB61A754640EA0C00C5
:100810005B084FEA3202B6EB020E75EB030E22BF05
:10082000B61A754640EA5C005B084FEA3202B6EB46
:10083000020E75EB030E22BFB61A754640EA9C0005
:100840005B084FEA3202B6EB020E75EB030E22BFD5
:10085000B61A754640EADC0055EA060E18D04FEA93
:10086000051545EA16754FEA06164FEAC30343EA33
:1008700052734FEAC2025FEA1C1CC0D111F4801F00
:100880000BD141EA00014FF000004FF0004CB6E7F9
:1008900011F4801F04BF01430020B4F1FD0C88BF98
:1008A000BCF5E06F3FF6AFAEB5EB030C04BFB6EBA3
:1008B000020C5FEA500C50F1000041EB045170BD96
:1008C0000EF0004E4EEA113114EB5C04C2BFD4EBC3
:1008D0000C0541EA045170BD41F480114FF0000E47
:1008E000013C90E645EA060E8DE60CEA135594EAC3
:1008F0000C0F08BF95EA0C0F3FF43BAF94EA0C0FC6
:100900000AD150EA01347FF434AF95EA0C0F7FF43A
:1009100025AF104619462CE795EA0C0F06D152EA8E
:1009200003353FF4FDAE1046194622E750EA410672
:1009300018BF52EA43067FF4C5AE50EA41047FF483
:100940000DAF52EA43057FF4EBAE12E74FEA4102E6
:1009500012F5001215D211D56FF47873B3EB625211
:1009600012D94FEAC12343F0004343EA505311F038
:10097000004F23FA02F018BF404270474FF00000CA
:10098000704750EA013005D111F0004008BF6FF008
:10099000004070474FF00000704700BF53B94AB99C
:1009A000002908BF00281CBF4FF0FF314FF0FF3077
:1009B00000F00CB8ADF1080C6DE904CE03F026FD93
:1009C000DDF804E0DDE9022304B07047704700BFA2
:1009D0000348044B834202D0034B03B118477047CE
:1009E0002400002024000020000000000548064BE1
:1009F0001B1AD90F01EBA301491002D0034B03B11D
:100A00001847704724000020240000200000000048
:100A100010B5064C237843B9FFF7DAFF044B13B146
:100A20000448AFF300800123237010BD280000208C
:100A300000000000C846000808B5054B1BB1054979
:100A40000548AFF30080BDE80840FFF7CFBF00BF07
:100A5000000000002C000020C84600082DE9F04FDF
:100A600083B051EC100B57EC116B59EC128B55EC19
:100A7000134B8DED004B32463B46FFF79DFB824604
:100A80008B4632463B4640464946FFF795FB0246B9
:100A90000B4650465946FFF771FE06460F46224662
:100AA0002B46DDE90001FFF787FB02460B46304687
:100AB0003946FFF739FD22462B46FFF77FFB41EC15
:100AC000100B03B0BDE8F08F38B50B4D0B4C286808
:100AD000FFF7C0FCC4E908016868FFF7BBFCC4E984
:100AE0000A01A868FFF7B6FCC4E90C01E868FFF743
:100AF000B1FCC4E90E0138BDB0010020480100205E
:100B000008B50278437842EA0322C2F30A02254B71
:100B10001A60A2F580621A6041788278520142EA36
:100B2000D102C2F30A025A60A2F580625A6081784B
:100B3000C278920042EA9112017942EA8122C2F31C
:100B40000A029A60A2F580629A6001794279D20124
:100B500042EA5102C2F30A02DA60A2F58062DA6068
:100B60004279C2F301121A75427992095A75827953
:100B7000C17942EA01221A83027A417A42EA0122C9
:100B80005A83827AC17A42EA01229A83027B9A7757
:100B9000427BDA77827BC17B42EA01221A84FFF72B
:100BA00093FF08BDB0010020094B1A6843F6982353
:100BB0009A4203DD064B43F698221A60044B1A68EA
:100BC000044B9A4202DA024B024A1A60704700BF95
:100BD0003C01002068C5FFFF10B58AB001220892D1
:100BE00000230693079200930193029303930593C6
:100BF00004930E4C6946204600F078FE204600F033
:100C000011FF0221204601F05EF80E23099305939F
:100C10006946204600F06AFE204600F003FF0221EC
:100C2000204601F050F80AB010BD00BFD4010020EA
:100C300010B58C461046BDF908E010494FF400721B
:100C40000A6000228A60CA6008220A610C4A4FEAE0
:100C50002C24147082F801C04FEA202C82F802C0C4
:100C6000D0701812107153719DF90930937182F888
:100C700007E00123034800F003FF10BD4C000020F3
:100C800044000020D40100200268374B9A4200D073
:100C9000704700B58BB001AB03AA002100F06EFFD6
:100CA000039B40F20222934225D040F2032293425A
:100CB0003DD040F2012293421AD19DF804209DF8C4
:100CC000053043EA0223294A93809DF806301B022F
:100CD0001BB29DF807100B43D3809DF808301B0210
:100CE0001BB29DF809100B4313819DF80A309372D3
:100CF0000BB05DF804FB9DF804209DF8053043EA35
:100D000002231B4A93809DF806301B021BB29DF8FC
:100D100007100B43D3809DF808301B021BB29DF8CF
:100D200009100B4313819DF80A309372E0E79DF898
:100D300004209DF8053043EA02230E4A93809DF873
:100D400006301B021BB29DF807100B43D3809DF8A1
:100D500008301B021BB29DF809100B4313819DF84C
:100D60000A309372C4E700BF006400407C0000209A
:100D7000700000206400002080ED000AC0ED010A30
:100D800080ED021AC0ED031A80ED042A7047F0EEE0
:100D9000407AB0EE600AF4EEE07AF1EE10FA09D98A
:100DA000F4EEC17AF1EE10FA02DAB0EE670A70479B
:100DB000B0EE410A704710B52DED028B044680ED70
:100DC000050AC0ED060A90ED077A80ED087A70EE0C
:100DD000600AC0ED070AD0ED008A60EEA88AC0ED77
:100DE000098A90ED0A0AD0ED017A60EEA77A30EE1A
:100DF000270A80ED0A0A90ED028A70EEC70A28EEF3
:100E0000208A80ED0B8A90ED031AF1EE410AFFF77C
:100E1000BEFF84ED0A0A78EE808A38EE280A84ED57
:100E20000C0A94ED041AF1EE410AFFF7B0FF84EDCD
:100E30000C0ABDEC028B10BD08B52DED068B9FEDA5
:100E40001AAADFED1A9A9FED1A9ADFED1A8A9FED22
:100E50001A8AB0EE4A2AF0EE691AB0EE491AF0EE9C
:100E6000680AB0EE480A1548FFF786FFB0EE4A2A36
:100E7000F0EE691AB0EE491AF0EE680AB0EE480AD0
:100E80000F48FFF779FF9FED0F2ADFED0F1A9FED57
:100E90000F1ADFED0F0A9FED0F0A0F48FFF76CFFE7
:100EA000BDEC068B08BD00BF00606A4600204B46C3
:100EB000CDCC4C3FCDCCCC3F6666E63FBC0000209D
:100EC000F000002000D004460080BB459A99193EEE
:100ED000AE47E13D6666A63F8800002000000000A6
:100EE0002DE9F8430446424D12224249284603F0B8
:100EF00055F8AC4201D0BDE8F8833E48FFF700FE4C
:100F00003D4B1B7D032B01D0022B1AD03A4BDB68E3
:100F10001D333A2B19D8394B00221A60364B1B6807
:100F200003F11D023A2A4CD91D2B44DC324B1B68BD
:100F300013F11D0FDFDA08223149324802F067FD54
:100F4000D9E7314B01221A60E0E7304CD4E910892F
:100F5000D4E90E2340464946FFF7E6FA06460F4617
:100F600042464B4600202A49FFF726F9D4E90623DA
:100F7000FFF7DAFA02460B4630463946FFF71EF90C
:100F800041EC100BC4E918019FED114B9FED123B92
:100F90009FED132B9FED141BFFF760FD51EC100B21
:100FA000FFF7D4FC154B1860FFF7FEFDD4E91823BA
:100FB000C4E90623B2E708221649124802F027FDC9
:100FC000B4E7052214490F4802F021FD93E700BF62
:100FD00000000000004CCD4000000000004CCDC0DF
:100FE0000000000000A084400000000000A084C0B9
:100FF000A002002024010020B00100203C010020BC
:10100000080000205C020020380100204801002078
:101010000000F03F10000020000000202A4B834217
:1010200000D0704770B582B0284BB3F9063000EE9F
:10103000903A274B93ED000A264DF8EEE00AB8EE01
:10104000C00A2846FFF7B7FE85ED0C0A224BB3F91C
:10105000063000EE903A214B93ED000A204CF8EE5A
:10106000E00AB8EEC00A2046FFF7A5FE84ED0C0AA0
:101070001C4BB3F9063000EE903A1B4B93ED000A7F
:101080001A4EF8EEE00AB8EEC00A3046FFF793FEBB
:1010900086ED0C0AD5ED0C7A94ED0C7ABDEEC00A03
:1010A000BDEEC77AFDEEE77A0023009310EE103A0A
:1010B0001BB217EE102A12B217EE901A09B20C48A2
:1010C000FFF7B6FD02B070BD300300207C000020A9
:1010D00044010020BC0000207000002040010020DE
:1010E000F0000020640000203C0100208800002067
:1010F000D401002072B6FEE700B595B03022002181
:1011000008A803F07BF90023039304930593069347
:1011100007930193204A116C41F080511164126CC5
:1011200002F080520192019A02931C4B1A6842F419
:1011300040421A601B6803F440430293029B012360
:1011400008934FF48033099302230E934FF48002E7
:101150000F9206221092A822119212930423139345
:1011600008A800F0F7FE98B90F2303930223049315
:10117000002305934FF4A05306934FF48053079335
:10118000052103A801F036F920B915B05DF804FB7C
:10119000FFF7B0FFFFF7AEFF0038024000700040DD
:1011A00038B501F00FFEFFF7A7FF00F0E5F800F0FB
:1011B000B1F900F051F900F0C7F902F015FF03F0A2
:1011C0004FF800F0E1F902F0D5FFFFF705FDFFF75A
:1011D00033FE5B4800F026FC12225A495A4802F0BE
:1011E000DDFE5A4B54A1D1E90001C3E91001584872
:1011F00001F0F0FE574D0421284602F0EFF90C21D2
:10120000284602F0EBF9544C0021204602F0E6F9A2
:101210000421204602F0E2F90821204602F0DEF91E
:101220000C21204602F0DAF92A684FF4FA7393632E
:1012300040F2DC51116422681364D36393635363F7
:1012400067E00221454801F0AFFA454B188058B1DC
:101250000134052001F0E2FDC82CF2D13D4B1B68A2
:1012600040F2DC529A63ECE700243E4B1C603E4B9C
:101270001C604FF4FA7001F0D1FD08E0052001F088
:10128000CDFD344B1B684FF4FA729A630134C82CBD
:10129000F4DD344B4FF4FA621A60334BA2F57A62F4
:1012A0001A60002400E00134B4F5C87F11DC052089
:1012B00001F0B4FD0221294801F076FA284B18808C
:1012C0000028F0D100224FF48061284801F073FA21
:1012D000E9E70024234B1C60234B1C6003E005203E
:1012E00001F09CFD0134142CF9DD4FF4FA7001F08B
:1012F00095FD184C236840F2DC529A634FF47A70E3
:1013000001F08CFD23684FF4FA729A63184B0022A7
:101310001A60174B1B68012BFBD1C82001F07EFD22
:10132000104B144A1A60104B4FF4FA621A600024F2
:101330008FE700BFAFF3008014AE47E17A14DE3FC1
:10134000D401002024010020A00200204801002038
:1013500030030020E802002078030020001402403F
:10136000360100204401002040010020001C024002
:101370003801002030F8FFFF70B58CB000240794CE
:10138000089409940A940B940094314B1A6B42F020
:1013900040021A631A6B02F040020092009A019414
:1013A0001A6B42F001021A631A6B02F001020192F9
:1013B000019A02941A6B42F002021A631A6B02F04D
:1013C00002020292029A03941A6B42F008021A6314
:1013D0001A6B02F008020392039A04941A6B42F407
:1013E00080721A631A6B02F480720492049A059454
:1013F0001A6B42F080021A631A6B02F080020592A7
:10140000059A06941A6B42F020021A631B6B03F0D4
:1014100020030693069B0F4D22464FF48041284639
:1014200001F0C9F90223079308940126099607A938
:10143000284601F0B5F84FF48043079308960994C5
:101440000A9407A9284601F0ABF80CB070BD00BFA4
:10145000003802400014024008B50D480D4B0360EF
:101460000323436000238360C3604FF410220261B2
:101470004FF400124261037643768376C376037796
:10148000437700F08DF900B908BDFFF733FEFBE7A5
:10149000D40100200064004010B588B000230393FD
:1014A00004930593069307930268184B9A4201D060
:1014B00008B010BD0024019403F5EA331A6C42F021
:1014C00000721A641A6C02F000720192019A02947E
:1014D0001A6B42F008021A631B6B03F008030293B5
:1014E000029B03230393022204920693092307938A
:1014F00003A9074801F054F822462146142001F0C0
:1015000009FC142001F016FCD2E700BF0064004083
:10151000000C024000B583B000210191094B1A6B09
:1015200042F480021A631B6B03F480030193019B56
:101530000A463A2001F0EEFB3A2001F0FBFB03B033
:101540005DF804FB0038024008B50C480C4B036002
:101550000C4B43604FF4805383600023C3604FF40F
:10156000806202610C2242618361C36102F020FA51
:1015700000B908BDFFF7BEFDFBE700BFA0020020D9
:1015800000100140A086010008B50A480A4B03601C
:101590004FF4E133436000238360C36003610C2296
:1015A00042618361C36102F003FA00B908BDFFF72D
:1015B000A1FDFBE75C0200200014014030B58BB0B8
:1015C00000230593069307930893099303683D4A04
:1015D000934204D03C4A934248D00BB030BD0446FD
:1015E00000250195394B5A6C42F010025A645A6C2E
:1015F00002F010020192019A02951A6B42F0020267
:101600001A631B6B03F002030293029BC023059332
:1016100002230693032308930723099305A92C4863
:1016200000F0BEFF2B482C4B03604FF0006343607B
:101630008560C5604FF480630361456185614FF447
:101640008073C3610562456201F038F958B9214BD6
:10165000A3639C6300221146252001F05BFB25203B
:1016600001F068FBB9E7FFF745FDF0E700240394BC
:10167000164B5A6C42F020025A645A6C02F0200257
:101680000392039A04941A6B42F040021A631B6B94
:1016900003F040030493049B4FF484430593022317
:1016A0000693032308930823099305A90B4800F028
:1016B00077FF22462146472001F02CFB472001F00E
:1016C00039FB8AE700100140001401400038024055
:1016D00000040240FC010020406402400018024067
:1016E000FEE7FEE7FEE7FEE7FEE77047704770475C
:1016F00008B501F081FB08BD08B5024800F001FB08
:1017000008BD00BFD401002008B5024801F0ABFCC1
:1017100008BD00BF7803002008B5024802F054FA63
:1017200008BD00BFA002002008B5024801F09BFCE4
:1017300008BD00BFE802002008B5024801F093FC94
:1017400008BD00BF3003002008B5024801F0AEF923
:1017500008BD00BFFC01002008B5024802F034FAC1
:1017600008BD00BF5C02002082B0002100910B4B3D
:101770005A6C42F480425A645A6C02F480420092DD
:10178000009A01911A6C42F080521A641B6C03F0AB
:1017900080530193019B02B0704700BF00380240A4
:1017A000002800F0A18038B5044690F82030D3B16D
:1017B0002268136843F00103136001F029FB05461A
:1017C00023685A6812F0010F10D101F021FB401B71
:1017D0000A28F5D9636A43F400336362052384F869
:1017E0002030012038BDFFF757FEE1E71A6822F0EC
:1017F00002021A6001F00CFB054623685A6812F0D9
:10180000020F0DD001F004FB401B0A28F5D9636AD2
:1018100043F400336362052384F820300120E1E7BC
:10182000227E012A3DD01A6822F080021A60637E6F
:10183000012B3BD02268136823F040031360A37E82
:10184000012B39D02268136823F020031360E37E54
:10185000012B37D02268136843F010031360237FF5
:10186000012B35D02268136823F008031360637FCF
:10187000012B33D02268136823F004031360A3689C
:10188000E268134322691343626913436268013AB1
:1018900021681343CB6100206062012384F820306B
:1018A000A0E71A6842F080021A60C0E72268136855
:1018B00043F040031360C2E72268136843F020033B
:1018C0001360C4E72268136823F010031360C6E7AF
:1018D0002268136843F008031360C8E7226813689E
:1018E00043F004031360CAE70120704790F82030EA
:1018F000013BDBB2012B05D9436A43F480234362E9
:101900000120704730B5464BD3F8002242F0010267
:10191000C3F80022D3F8002222F47C52C3F800223C
:10192000D3F80022486A42EA0022C3F800224A693A
:1019300002F01F02012000FA02F2D3F81C026FEA43
:10194000020C20EA0200C3F81C02CB69C3B9344B75
:10195000D3F80C020CEA0000C3F80C028C8848692A
:10196000CD6844EA0544483043F830408C68088824
:1019700040EA04404C6904F1480E03EBCE03586082
:10198000CB69012B1ED08B69002B33D12448D0F8B2
:1019900004320CEA0303C0F804320B698BBB204805
:1019A000D0F814320CEA0303C0F814320B6A012B8E
:1019B0002ED01B4AD2F8003223F00103C2F80032C5
:1019C000002030BD164BD3F80C021043C3F80C02B4
:1019D0008C8848690D6844EA0544483043F8304033
:1019E00088894C698D6840EA0540483403EBC4039C
:1019F0005860C8E70A48D0F804321343C0F80432EC
:101A0000CBE70748D0F814321343C0F81432CDE7BF
:101A10000349D1F81C321343C1F81C32C9E700BF97
:101A20000064004070B5044690F82050EDB2012DDE
:101A300006D0436A43F4002343620125284670BD63
:101A4000022380F820300268136823F0010313603A
:101A500001F0DEF9064623685B6813F0010F0CD035
:101A600001F0D6F9831B0A2BF5D9636A43F40033DE
:101A70006362052384F82030E0E700256562DDE736
:101A800030B590F820C00468A4680CF1FF3C5FFA00
:101A90008CFCBCF1010F6BD814F0E05F62D0C4F392
:101AA000016CBCF1020F05D9436A43F400034362A1
:101AB000012062E0012404FA0CF41C608B68002B06
:101AC0003DD10D68CB68046843EA45550CF1180315
:101AD0001B01E55003680C690CF1180E03EB0E13A3
:101AE0005C600B7D012B35D0D17993791B0443EADF
:101AF0000163517943EA012314790168234301EB1F
:101B00000C11C1F88C31D17893781B0443EA01633E
:101B1000517843EA0123117802680B4302EB0C125F
:101B2000C2F8883102680CF1180C4FEA0C1C52F80C
:101B30000C3043F0010342F80C3000201DE04C68EB
:101B400043EAC403CC6823430CF11804240105685C
:101B50002B51BFE7036803EB0E13596841F4807102
:101B60005960C1E7436A43F400134362012004E073
:101B7000436A43F480234362012030BD90F820C0C3
:101B80000CF1FF3C5FFA8CFCBCF1010F00F2958078
:101B900030B451B90468E46814F0030F10D1436AFB
:101BA00043F400134362012077E00468246914F0D1
:101BB000030F05D1436A43F40013436201206CE034
:101BC00001F11B04240105682C5904F004049460FD
:101BD000002C64D101F11B04240105682C59640D0B
:101BE0001460046801F11B0C4FEA0C1C54F80C4003
:101BF00004F00204D46004686444646804F00F04D0
:101C00001461046864446468C4F30724946104683C
:101C100064446468240C5461026802EB0112D2F837
:101C2000B8211A70026802EB0112D2F8B821C2F38F
:101C300007225A70026802EB0112D2F8B821C2F3EF
:101C400007429A70026802EB0112D2F8B821120E14
:101C5000DA70026802EB0112D2F8BC211A71026834
:101C600002EB0112D2F8BC21C2F307225A710268BA
:101C700002EB0112D2F8BC21C2F307429A7102684A
:101C800002EB0112D2F8BC21120EDA7179B90268A6
:101C9000D36843F02003D360002030BC704701F1CB
:101CA0001B04240105682C59E408546099E7026874
:101CB000136943F020031361EEE7436A43F4802382
:101CC00043620120704790F82030013BDBB2012BCA
:101CD00005D9436A43F480234362012070470268B8
:101CE00053690B435361002070477047704770473A
:101CF000704770477047704770477047704770472C
:101D000070472DE9F84F054603685C69D3F80480F5
:101D10009F68D3F80CA0D3F81090D3F818B014F043
:101D200001063BD017F0010616D001229A6017F089
:101D3000020F08D117F0040F0CD117F0080606D0D7
:101D40004FF4805608E0FFF7D0FF002604E0FFF7CD
:101D5000CFFF01E04FF4006617F4807F0DD02B68B1
:101D60004FF480729A6017F4007F40F0968017F469
:101D7000806F00F0968046F4005617F4803F0DD037
:101D80002B684FF480329A6017F4003F40F0938044
:101D900017F4802F00F0938046F4004614F0080FEB
:101DA00007D01AF0100F04D046F400762B681022EA
:101DB000DA6014F0040F03D01AF0080F40F08980A5
:101DC00014F0020F05D02B68DB6813F0030F40F00E
:101DD000878014F0400F07D019F0100F04D046F49C
:101DE00080662B6810221A6114F0200F02D019F0BF
:101DF000080F79D114F0100F04D02B681B6913F071
:101E0000030F78D114F4003F02D018F0100F76D1F0
:101E100014F4803F02D018F0080F77D114F4004F6B
:101E200037D018F0040F31D014F4807F04D01BF0A9
:101E3000010F01D046F0010614F4007F04D01BF01E
:101E4000020F01D046F0020614F4806F04D01BF09C
:101E5000040F01D046F0040614F4006F16D01BF0F6
:101E6000700B13D0BBF1400F66D056D8BBF1200FDA
:101E70005CD0BBF1300F5CD0BBF1100F01D146F04C
:101E800008062A68936923F0700393612B68042283
:101E90005A60002E56D1BDE8F88F2846FFF726FF7E
:101EA0006BE717F4006F02D046F4804665E72846DA
:101EB000FFF71FFF61E72846FFF719FF6EE717F4EA
:101EC000002F02D046F4803668E72846FFF712FF5D
:101ED00064E72B680822DA602846FFF70CFF6FE7FB
:101EE0002846FEF7D1FE74E72B6808221A612846BF
:101EF000FFF703FF7EE72846FFF7FEFE82E72B6829
:101F000010225A602846FFF7F9FE81E72B68082265
:101F10005A602846FFF7F3FE80E7BBF1500F0ED062
:101F2000BBF1600FADD146F48076AAE746F010060B
:101F3000A7E746F02006A4E746F04006A1E746F0F2
:101F400080069EE76B6A33436B622846FFF7D8FE34
:101F5000A1E70000002800F0E08170B582B00446DF
:101F6000036813F0010F3BD09F4B9B6803F00C03F9
:101F7000042B2CD09C4B9B6803F00C03082B21D026
:101F80006368B3F5803F4FD0B3F5A02F52D0964B86
:101F90001A6822F480321A601A6822F480221A60C9
:101FA0006368002B50D000F033FF05468E4B1B6852
:101FB00013F4003F14D100F02BFF401B6428F5D927
:101FC0000320B1E1884B5B6813F4800FD8D0864BB7
:101FD0001B6813F4003F03D06368002B00F09F815F
:101FE000236813F0020F54D07F4B9B6813F00C0F43
:101FF0003ED07D4B9B6803F00C03082B33D0E36885
:10200000002B68D0794B01221A6000F001FF0546D1
:10201000754B1B6813F0020F54D100F0F9FE401B02
:102020000228F5D903207FE16F4A136843F4803317
:102030001360B5E76C4B1A6842F480221A601A6884
:1020400042F480321A60ABE700F0E2FE0546664BD0
:102050001B6813F4003FC3D000F0DAFE401B642875
:10206000F5D9032060E1604B5B6813F4800FC6D1A3
:102070005D4B1B6813F0020F03D0E368012B40F0A7
:102080005081594A136823F0F803216943EAC103D8
:102090001360236813F0080F42D063696BB3534B8E
:1020A0000122C3F8802E00F0B3FE05464E4B5B6F55
:1020B00013F0020F34D100F0ABFE401B0228F5D91B
:1020C000032031E1484A136823F0F803216943EA09
:1020D000C1031360DDE7454B00221A6000F098FE53
:1020E0000546414B1B6813F0020FD2D000F090FE62
:1020F000401B0228F5D9032016E13C4B0022C3F80F
:10210000802E00F085FE0546374B5B6F13F0020F03
:1021100006D000F07DFE401B0228F5D9032003E124
:10212000236813F0040F77D02F4B1B6C13F0805FE4
:1021300033D1002301932C4B1A6C42F080521A6465
:102140001B6C03F080530193019B0125284B1B68F6
:1021500013F4807F23D0A368012B34D0052B38D013
:10216000214B1A6F22F001021A671A6F22F0040243
:102170001A67A368002B3DD000F04AFE06461A4BB2
:102180001B6F13F0020F46D100F042FE801B41F29C
:1021900088339842F3D90320C6E00025D6E7144AD5
:1021A000136843F48073136000F032FE0646104B50
:1021B0001B6813F4807FCED100F02AFE801B02281A
:1021C000F5D90320B0E0084A136F43F00103136709
:1021D000CFE7054B1A6F42F004021A671A6F42F0FC
:1021E00001021A67C5E700BF0038024000004742FD
:1021F0000070004000F00CFE0646524B1B6F13F0BF
:10220000020F08D000F004FE801B41F28833984290
:10221000F3D9032088E0EDB9A369002B00F0838097
:10222000484A926802F00C02082A51D0022B17D0BB
:10223000454B00221A6600F0EBFD0446414B1B683B
:1022400013F0007F42D000F0E3FD001B0228F5D917
:10225000032069E03B4A136C23F080531364DBE7EF
:10226000394B00221A6600F0D3FD0546354B1B683A
:1022700013F0007F06D000F0CBFD401B0228F5D9FB
:10228000032051E0E369226A1343626A43EA82133E
:10229000A26A5208013A43EA0243E26A43EA02634D
:1022A000284A5360284B01221A6600F0B1FD04460B
:1022B000244B1B6813F0007F06D100F0A9FD001B22
:1022C0000228F5D903202FE000202DE000202BE08C
:1022D000012B2BD01B4B5B6803F48001E269914218
:1022E00026D103F03F02216A8A4223D1616A47F670
:1022F000C0721A40B2EB811F1ED103F44031A26AB2
:102300005208013AB1EB024F18D103F07063E26A50
:10231000B3EB026F14D1002006E0012070470120CA
:1023200002E0012000E0002002B070BD0120FBE7C8
:102330000120F9E70120F7E70120F5E70120F3E7A5
:102340000120F1E7003802400000474208B5264B63
:102350009B6803F00C03042B41D0082B41D1224B86
:102360005A6802F03F025B6813F4800F12D01E4BD4
:102370005968C1F388111D480023A1FB0001FEF735
:102380000DFB194B5B68C3F3014301335B00B0FBEA
:10239000F3F008BD144B5868C0F388104FEA401C96
:1023A000BCEB000C6EEB0E0E4FEA8E1343EA9C63FF
:1023B0004FEA8C11B1EB0C0163EB0E03DB0043EA37
:1023C0005173C90011EB000C43F100039902002383
:1023D0004FEA8C2041EA9C51FEF7E0FAD1E703482E
:1023E000D7E70348D5E700BF00380240001BB7001D
:1023F0000024F400002800F09B8070B50D460446D0
:102400004F4B1B6803F00F038B4208D2CBB24C4AF0
:102410001370136803F00F038B4240F08B80236826
:1024200013F0020F17D013F0040F04D0454A93683D
:1024300043F4E0539360236813F0080F04D0414A3B
:10244000936843F4604393603E4A936823F0F0033B
:10245000A1680B439360236813F0010F32D06368C7
:10246000012B21D09A1E012A25D9364A126812F072
:10247000020F61D033498A6822F0030213438B6054
:1024800000F0C6FC06462F4B9B6803F00C03626805
:10249000B3EB820F16D000F0BBFC801B41F28833F7
:1024A0009842F0D9032042E0264A126812F4003F15
:1024B000E0D101203BE0234A126812F0007FD9D11D
:1024C000012034E01E4B1B6803F00F03AB4207D919
:1024D000EAB21B4B1A701B6803F00F03AB422DD1FD
:1024E000236813F0040F06D0164A936823F4E053D0
:1024F000E1680B439360236813F0080F07D0114A7B
:10250000936823F46043216943EAC1039360FFF7B2
:102510001DFF0C4B9B68C3F303130B4AD35CD840DD
:102520000A4B18600A4B186800F026FC002070BDAA
:10253000012070470120FAE70120F8E70120F6E7C3
:10254000003C024000380240F04600082000002015
:102550001C000020014B1868704700BF20000020BD
:1025600008B5FFF7F7FF044B9B68C3F38223034AC8
:10257000D35CD84008BD00BF00380240E8460008E0
:1025800008B5FFF7E7FF044B9B68C3F34233034AE8
:10259000D35CD84008BD00BF00380240E8460008C0
:1025A00000230F2B00F2F68070B582B066E08568DC
:1025B0004FEA430E032404FA0EF425EA0405CC681E
:1025C00004FA0EF42C438460446824EA02044A6846
:1025D000C2F300129A40224342605DE0DC080834F6
:1025E00050F8242003F00705AD004FF00F0E0EFA4F
:1025F00005FE22EA0E0E0A69AA4042EA0E0240F8DF
:1026000024205DE0092200E0002202FA0EF22A43B3
:102610000234614D45F82420604A94686FEA0C0248
:1026200024EA0C054E6816F4801F01D04CEA04051C
:102630005A4CA560E46802EA04054E6816F4001FCF
:1026400001D04CEA0405554CE560646802EA0405D3
:102650004E6816F4003F01D04CEA04054F4C65600B
:10266000246822404D6815F4803F01D04CEA0402F2
:102670004A4C226001330F2B00F28A8001229A40DB
:102680000C6804EA020C32EA0404F3D14C6804F04A
:102690000304013C012C8AD94A6802F00302032A90
:1026A00009D0C4685D000322AA4024EA02048A68B3
:1026B000AA402243C2604A6802F00302022A8DD077
:1026C00004684FEA430E032202FA0EF224EA0204DF
:1026D0004A6802F0030202FA0EF2224302604A68DC
:1026E00012F4403FC6D0002201922D4A546C44F4AB
:1026F00080445464526C02F480420192019A9C0816
:10270000A51C254A52F8255003F0030E4FEA8E0E01
:102710000F2202FA0EF225EA0205224A90423FF405
:1027200073AF02F58062904222D002F5806290423F
:1027300020D002F5806290421ED002F58062904265
:102740001CD002F5806290421AD002F5806290425D
:1027500018D002F58062904216D002F58062904255
:1027600014D002F5806290423FF44CAF0A224CE74D
:1027700001224AE7022248E7032246E7042244E70F
:10278000052242E7062240E707223EE708223CE70F
:1027900002B070BD704700BF00380140003C0140EE
:1027A00000380240000002400369194201D00120B4
:1027B0007047002070470AB1816170470904816148
:1027C000704730B405682C6824F480242C600468B9
:1027D00063608368402B05D0036899600368DA6002
:1027E00030BC704703689A600368D960F8E700005E
:1027F00010B40368D9B210390A4AA2FB0142120987
:10280000094CA25CC2655F2907D96FF30903043341
:102810008365806D5DF8044B70476FF30903836532
:10282000F7E700BFABAAAAAAE0460008836A82695C
:1028300092B9012B0AD0022B02D00BB100207047B5
:10284000C36A13F0807F28D100207047C36AB3F1B8
:10285000C07F24D000207047B2F5005F09D0022B62
:1028600025D9032B25D1C36A13F0807F23D1002003
:102870007047032B03D8DFE803F01404140A002088
:102880007047C36A13F0807F0DD100207047C36A80
:10289000B3F1C07F09D000207047012070470120AC
:1028A00070470120704701207047012070470120C8
:1028B00070470020704701207047000070B5044643
:1028C00000F0A6FA002C5BD00546022384F83530D0
:1028D000002384F834302268136823F00103136066
:1028E00023681A6812F0010F0AD000F091FA431B16
:1028F000052BF5D920236365032084F8350070BDCE
:102900001A68204911406268A0680243E0680243E7
:102910002069024360690243A0690243E0690243FF
:10292000206A02430A43616A04291ED01A6026689D
:10293000756925F00705636A1D43042B07D1A36A57
:102940001D43E36A1BB12046FFF770FF90B9756124
:102950002046FFF74DFFE26D3F2393408360002048
:102960006065012384F83530C9E7E16A206B0143D3
:102970000A43DBE740236365012084F83500BEE7A6
:102980000120BCE73F8010F038B50446856D90F813
:10299000340001282BD0012084F8340094F835004D
:1029A000C0B2012804D0002384F83430022038BD9E
:1029B000022084F83500002060652046FFF701FF03
:1029C000E26D3F239340AB602268136843F0160327
:1029D0001360236C23B12268136843F0080313606B
:1029E0002268136843F0010313600020DFE7022030
:1029F000DDE770B50446866D00F00AFA94F83530CC
:102A0000DBB2022B06D080236365002384F83430C8
:102A1000012070BD05462268136823F01603136079
:102A20002268536923F080035361236CE3B1226869
:102A3000136823F0080313602268136823F001036E
:102A4000136023681B6813F0010F11D000F0E0F948
:102A5000431B052BF5D920236365032084F835003B
:102A6000002384F83430D4E7A36C002BDFD1E3E7F4
:102A7000E26D3F239340B360012384F8353000209A
:102A800084F83400C5E790F83530DBB2022B03D070
:102A90008023436501207047052380F835300268A4
:102AA000136823F00103136000207047F0B583B072
:102AB000044600230193724B1D68724BA3FB05353E
:102AC000AD0A876D3E68C26D08239340334210D033
:102AD00003681A6812F0040F0BD01A6822F004027F
:102AE0001A60C26D08239340BB60436D43F001033D
:102AF0004365E26D01239340334209D02268526955
:102B000012F0800F04D0BB60636D43F00203636575
:102B1000E26D04239340334209D02268126812F018
:102B2000020F04D0BB60636D43F004036365E26D84
:102B300010239340334224D02268126812F0080F09
:102B40001FD0BB6023681A6812F4802F0DD01B6859
:102B500013F4002F04D1236C9BB12046984710E05A
:102B6000A36C73B1204698470BE01A6812F4807F7B
:102B700003D11A6822F008021A60236C0BB12046B8
:102B80009847E26D20239340334255D02268126863
:102B900012F0100F50D0BB6094F83530DBB2052B2B
:102BA0000ED023681A6812F4802F33D01B6813F4F8
:102BB000002F2AD1636C002B3ED0204698473BE083
:102BC0002268136823F0160313602268536923F008
:102BD00080035361236CA3B12268136823F00803B8
:102BE0001360E26D3F239340BB60012384F83530CE
:102BF000002384F83430236D002B3FD020469847C3
:102C00003CE0A36C002BE7D1EBE7E36BA3B12046DC
:102C1000984711E01A6812F4807F09D11A6822F0EF
:102C200010021A60012384F83530002384F8343010
:102C3000E36B0BB120469847636DFBB1636D13F0F6
:102C4000010F17D0052384F835302268136823F06C
:102C500001031360019B01330193AB4204D8236845
:102C60001B6813F0010FF5D1012384F835300023E0
:102C700084F83430E36C0BB12046984703B0F0BDC4
:102C800020000020B5814E1B002808DB0901C9B2D5
:102C900000F1604000F5614080F80013704700F0DB
:102CA0000F000901C9B2014B1954704714ED00E03F
:102CB00000B500F00700C0F1070CBCF1040F28BFFD
:102CC0004FF0040C031D062B0FD9C31E4FF0FF3E1F
:102CD0000EFA0CF021EA000199400EFA03FE22EAF6
:102CE0000E0241EA02005DF804FB0023EEE700005B
:102CF000074AD36823F4E0631B041B0C000200F4B2
:102D0000E060034343F0BF6343F40033D360704794
:102D100000ED00E010B50446054BD868C0F3022072
:102D2000FFF7C6FF01462046FFF7AEFF10BD00BF0C
:102D300000ED00E0002807DB00F01F02400901233E
:102D40009340024A42F82030704700BF00E100E0A3
:102D50000138B0F1807F0BD24FF0E0235861054A73
:102D6000F02182F823100020986107221A61704731
:102D70000120704700ED00E010B504460E4B1A78B4
:102D80004FF47A73B3FBF2F30C4A1068B0FBF3F024
:102D9000FFF7DEFF68B90F2C01D901200AE00022FD
:102DA00021464FF0FF30FFF7B5FF054B1C600020B8
:102DB00000E0012010BD00BF18000020200000200E
:102DC0001C00002008B50B4B1A6842F400721A6010
:102DD0001A6842F480621A601A6842F480721A60BB
:102DE0000320FFF785FF0F20FFF7C6FFFEF7BCFCAF
:102DF000002008BD003C0240034A1168034B1B78C9
:102E00000B441360704700BFE4020020180000204C
:102E1000014B1868704700BFE402002038B5044633
:102E2000FFF7F6FF0546B4F1FF3F02D0044B1B78D5
:102E30001C44FFF7EDFF401BA042FAD338BD00BF92
:102E40001800002030B4036A23F001030362036A10
:102E50004268846924F0730C0C6844EA0C0423F083
:102E6000020C8B6843EA0C03114DA84203D005F510
:102E70008065A84205D123F00803CD682B4323F0D9
:102E800004030B4DA84203D005F58065A84207D185
:102E900022F440724D6945EA020C8A6942EA0C024A
:102EA000426084614A684263036230BC704700BF7D
:102EB0000000014030B4036A23F480730362036AA4
:102EC0004268C46924F0730C0C6844EA0C0523F4CE
:102ED00000738C6843EA0423114CA04203D004F52C
:102EE0008064A04206D123F40063CC6843EA042343
:102EF00023F480630A4CA04203D004F58064A0420E
:102F000007D122F440524C6942EA04128C6942EA29
:102F100004124260C5614A68C263036230BC7047F4
:102F20000000014030B4036A23F480530362036A53
:102F30004468C26922F4E6420D6842EA052223F49D
:102F400000538D6843EA0533094DA84203D005F5C7
:102F50008065A84204D124F480444D6944EA851474
:102F60004460C2614A680264036230BC704700BFBB
:102F70000000014010B4036A046A24F001040462F2
:102F8000846924F0F00C4CEA021223F00A030B438C
:102F9000826103625DF8044B704710B4036A23F04A
:102FA000100303628469036A24F4704C4CEA023211
:102FB00023F0A00343EA0113826103625DF8044B2E
:102FC0007047836823F070030B4343F0070383606B
:102FD0007047000090F83D30DBB2012B37D102235F
:102FE00080F83D300268D36843F00103D360036882
:102FF000194A934220D0B3F1804F1DD0A2F57C42F4
:10300000934219D002F58062934215D002F5806296
:10301000934211D002F5784293420DD002F57052DE
:10302000934209D0A2F59432934205D01A6842F037
:1030300001021A60002070479A6802F00702062A0F
:1030400007D01A6842F001021A6000207047012080
:1030500070470020704700BF000001407047704774
:1030600070477047704710B5044603681A6912F03C
:10307000020F11D0DA6812F0020F0DD06FF00202C9
:103080001A610123037703689B6913F0030F70D063
:10309000FFF7E6FF0023237723681A6912F0040F75
:1030A00012D0DA6812F0040F0ED06FF004021A6129
:1030B0000223237723689B6913F4407F5FD0204667
:1030C000FFF7CEFF0023237723681A6912F0080F59
:1030D00012D0DA6812F0080F0ED06FF008021A61F1
:1030E000042323772368DB6913F0030F4ED02046B7
:1030F000FFF7B6FF0023237723681A6912F0100F39
:1031000012D0DA6812F0100F0ED06FF010021A61B0
:10311000082323772368DB6913F4407F3DD02046E2
:10312000FFF79EFF0023237723681A6912F0010F2F
:1031300003D0DA6812F0010F36D123681A6912F051
:10314000800F03D0DA6812F0800F34D123681A6937
:1031500012F0400F03D0DA6812F0400F32D123682A
:103160001A6912F0200F03D0DA6812F0200F30D164
:1031700010BDFFF774FF2046FFF773FF8AE7204674
:10318000FFF76DFF2046FFF76CFF9BE72046FFF738
:1031900066FF2046FFF765FFACE72046FFF75FFFBD
:1031A0002046FFF75EFFBDE76FF001021A6120467F
:1031B000FDF734FFC1E76FF080021A61204600F08E
:1031C000FFFAC3E76FF040021A612046FFF74AFF9B
:1031D000C5E76FF020021A61204600F0F0FAC7E759
:1031E0000368304A904212D0B0F1804F0FD0A2F560
:1031F0007C4290420BD002F58062904207D002F5EB
:103200008062904203D002F57842904203D123F0CD
:1032100070034A681343234A90422AD0B0F1804F8A
:1032200027D0A2F57C42904223D002F580629042E2
:103230001FD002F5806290421BD002F57842904286
:1032400017D002F57052904213D002F5806290427E
:103250000FD002F5806290420BD0A2F598329042D6
:1032600007D002F58062904203D002F5806290425E
:1032700003D123F44073CA68134323F080034A69DF
:10328000134303608B68C3620B688362054B9842EB
:1032900003D003F58063984201D10B6903630123D6
:1032A000436170470000014040B310B5044690F8F8
:1032B0003D30F3B1022384F83D30214651F8040B30
:1032C000FFF78EFF012384F8463084F83E3084F8FF
:1032D0003F3084F8403084F8413084F8423084F83C
:1032E000433084F8443084F8453084F83D30002081
:1032F00010BD80F83C3000F09FFEDBE701207047F6
:1033000040B310B5044690F83D30F3B1022384F881
:103310003D30214651F8040BFFF762FF012384F88A
:10332000463084F83E3084F83F3084F8403084F8EA
:10333000413084F8423084F8433084F8443084F8D3
:10334000453084F83D30002010BD80F83C30FFF758
:1033500085FEDBE70120704730B4036A23F01003D9
:103360000362036A4468826922F4E6420D6842EA15
:10337000052223F020038D6843EA0513114DA8426E
:1033800003D005F58065A84206D123F08003CD68FF
:1033900043EA051323F040030A4DA84203D005F584
:1033A0008065A84207D124F440644D6944EA85044D
:1033B0008D6944EA8504446082614A6882630362DD
:1033C00030BC70470000014038B590F83C30012B0C
:1033D00066D004460D46012380F83C300C2A5AD8AA
:1033E000DFE802F0075959591B59595930595959B1
:1033F00044000068FFF726FD2268936943F0080344
:1034000093612268936923F00403936122689369AE
:1034100029690B43936100203EE00068FFF79CFFA1
:103420002268936943F4006393612268936923F4EB
:103430008063936122689369296943EA0123936158
:10344000002029E00068FFF735FD2268D36943F0CA
:103450000803D3612268D36923F00403D36122688F
:10346000D36929690B43D361002015E00068FFF799
:1034700059FD2268D36943F40063D3612268D3699C
:1034800023F48063D3612268D369296943EA012365
:10349000D361002000E00120002384F83C3038BDD7
:1034A0000220FCE710B4846824F47F4C42EA032233
:1034B0000A4342EA0C0282605DF8044B704790F8C0
:1034C0003C30012B78D010B50446012380F83C3005
:1034D000022380F83D300268936823F47F4323F091
:1034E000770393600B68602B4CD023D8402B54D0CB
:1034F00011D8202B03D00AD80BB1102B05D11946B7
:103500002068FFF75EFD002028E0012026E0302B38
:10351000F5D0012022E0502B0AD1CA684968006822
:10352000FFF728FD50212068FFF74BFD002015E034
:10353000012013E0B3F5805F3AD0B3F5005F14D0FB
:10354000702B37D1CB684A6889680068FFF7AAFFFB
:103550002268936843F0770393600020012384F886
:103560003D30002384F83C3010BDCB684A68896840
:103570000068FFF797FF2268936843F480439360E5
:103580000020EBE7CA6849680068FFF706FD602184
:103590002068FFF716FD0020E0E7CA684968006868
:1035A000FFF7E8FC40212068FFF70BFD0020D5E77E
:1035B0000020D3E70120D1E70220704701F01F016E
:1035C0004FF0010C0CFA01FC036A23EA0C030362BE
:1035D000036A8A40134303627047000010B5044633
:1035E0000846002942D194F83E30DBB2013B18BFB7
:1035F0000123002B6ED1002851D1022384F83E30E4
:10360000012201462068FFF7D9FF2368334A93421D
:1036100003D002F58062934203D15A6C42F4004217
:103620005A6423682D4A934249D0B3F1804F46D063
:10363000A2F57C42934242D002F5806293423ED092
:1036400002F5806293423AD002F57842934236D036
:1036500002F57052934232D0A2F5943293422ED0AA
:103660001A6842F001021A60002032E0042908D0F2
:1036700008290DD094F84130DBB2013B18BF01237B
:10368000B7E794F83F30DBB2013B18BF0123B0E746
:1036900094F84030DBB2013B18BF0123A9E70428AE
:1036A00005D0082807D0022384F84130A8E7022378
:1036B00084F83F30A4E7022384F84030A0E79A68FA
:1036C00002F00702062A07D01A6842F001021A60C7
:1036D000002010BD0120FCE70020FAE700000140B7
:1036E00090F83C20012A3DD010B40346012280F816
:1036F0003C20022280F83D2002685068946820F047
:10370000700C086840EA0C0050601A681648824243
:103710001AD0B2F1804F17D0A0F57C40824213D06E
:1037200000F5806082420FD000F5806082420BD0AD
:1037300000F57840824207D000F57050824203D0F5
:10374000A0F59430824204D124F0800449682143DA
:103750009160012283F83D20002083F83C005DF851
:10376000044B70470220704700000140024690F869
:103770003C30012B21D0012380F83C30CB6823F46E
:1037800040738868034323F480634868034323F449
:1037900000630868034323F480530869034323F458
:1037A00000534869034323F48043C9690B431168FC
:1037B0004B64002082F83C0070470220704770473D
:1037C0007047026802F10C0353E8003F23F0C00386
:1037D0000C3242E800310029F3D1202380F83D303B
:1037E0007047026802F10C0353E8003F23F4907322
:1037F0000C3242E800310029F3D1026802F11403CF
:1038000053E8003F23F00103143242E8003100295D
:10381000F3D1036B012B05D0202380F83E30002329
:1038200003637047026802F10C0353E8003F23F082
:1038300010030C3242E800310029F3D1ECE790F894
:103840003D30DBB2212B01D0022070478368B3F5F5
:10385000805F17D0036A5A1C02621A7803685A60A4
:10386000C38C9BB2013B9BB2C3844BB90268D36843
:1038700023F08003D3600268D36843F04003D36031
:10388000002070470369002BE4D1036A1B8802689B
:10389000C3F308035360036A02330362E0E70000E6
:1038A00010B504460268136923F44053C1680B4302
:1038B0001361836802691A4343691A43C3691A434F
:1038C0000168CB6823F4164323F00C031343CB6049
:1038D0000268536923F4407381690B4353610368A1
:1038E000314A934206D002F58062934202D0FEF73D
:1038F00037FE01E0FEF744FEE369B3F5004F29D03F
:103900000021031849411B1841F10001C90041EA97
:103910005371DB00181863684FEA83024FEA937310
:1039200041F10001FDF73AF8204AA2FB00314909B4
:10393000642303FB11031B013233A2FB03235B0946
:1039400003F0F00202EB011203F00F0321681344AD
:103950008B6010BD0023021843EB0301121841F1E4
:103960000001C90041EA5271D200101841F1000172
:10397000626892185B41FDF711F80C4AA2FB003116
:103980004909642303FB1103DB003233A2FB032349
:103990005B095A0002F4F87202EB011203F007030C
:1039A000216813448B60D4E7001001401F85EB5160
:1039B00058B310B5044690F83D300BB3242384F877
:1039C0003D302268D36823F40053D3602046FFF7CC
:1039D00067FF2268136923F49043136122685369D7
:1039E00023F02A0353612268D36843F40053D36061
:1039F00000202064202384F83D3084F83E3010BD40
:103A000080F83C30FDF7DAFDD8E70120704790F8E8
:103A10003D30DBB2202B19D1D1B1DAB190F83C3076
:103A2000012B19D0012380F83C3001628284C284CA
:103A300000230364212280F83D2080F83C30016897
:103A4000CA6842F08002CA60184670470220704778
:103A5000012070470120704702207047704708B569
:103A60000168CA6822F04002CA60202280F83D2026
:103A7000FFF7F4FF002008BD7047704710B5846B56
:103A800023685A6994F83D30DBB2212B10D02368AB
:103A90005A6902F0400294F83E30DBB2222B11D07A
:103AA000236C43F0100323642046FFF7E6FF10BDAC
:103AB00002F08002002AEAD00023E3842046FFF7C8
:103AC00080FEE4E7002AEBD00023E3852046FFF7E1
:103AD00088FEE5E708B5806B0023C385C384FFF744
:103AE000CCFF08BD704790F83E30DBB2222B67D187
:103AF0008368B3F5805F4DD0826AB3F5805F04D0F0
:103B0000002B54D10369002B51D103685B681370FB
:103B1000836A01338362C38D9BB2013B9BB2C38531
:103B2000002B4FD100B583B00268D36823F0200387
:103B3000D3600268D36823F48073D360026853694A
:103B400023F001035361202380F83E30036B012BE7
:103B500033D100230363026802F10C0353E8003FF2
:103B600023F010030C3242E800310029F3D103683E
:103B70001A6812F0100F06D0002201921A68019202
:103B80005B680193019B818DFFF7ACFF002003B0C0
:103B90005DF804FB0269002AAED1826A03685B68A3
:103BA000C3F308031380836A02338362B3E70368B5
:103BB0005B6803F07F031370AAE7FDF791F9E5E76F
:103BC000022070470020704710B582B0044602689A
:103BD0001368D068516913F00F0F09D113F0200F4B
:103BE0000CD010F0200F09D02046FFF77CFF16E024
:103BF00011F0010115D110F4907F12D1216B012930
:103C000079D013F0800F03D010F0800F40F01081B6
:103C100013F0400F03D010F0400F40F00D8102B0C0
:103C200010BD13F0010F06D010F4807F03D0226C7A
:103C300042F00102226413F0040F04D019B1226C87
:103C400042F00202226413F0020F04D019B1226C78
:103C500042F00402226413F0080F07D010F0200F86
:103C600000D119B1226C42F008022264226C002AB1
:103C7000D5D013F0200F02D010F0200F29D12368E7
:103C80005B6903F04003226C12F0080F00D163B3AC
:103C90002046FFF7A6FD23685B6913F0400F20D094
:103CA000226802F1140353E8003F23F0400314326A
:103CB00042E800310029F3D1A36B73B1604A1A6561
:103CC000A06BFEF7E0FE0028A9D0A06B036D98471B
:103CD000A5E72046FFF707FFD1E72046FFF7CDFE17
:103CE0009DE72046FFF7C9FE99E72046FFF7C5FE8E
:103CF0000023236493E713F0100F82D010F0100F0D
:103D00003FF47FAF0023019313680193536801933D
:103D1000019B536913F0400F50D0A26B13685B688E
:103D20009BB2002B3FF47BAFA18D99427FF677AF1A
:103D3000E385D369B3F5807F37D0226802F10C03A5
:103D400053E8003F23F480730C3242E8003100292D
:103D5000F3D1226802F1140353E8003F23F001037A
:103D6000143242E800310029F3D1226802F1140331
:103D700053E8003F23F04003143242E800310029A9
:103D8000F3D1202384F83E3000232363226802F11C
:103D90000C0353E8003F23F010030C3242E80031DB
:103DA0000029F3D1A06BFEF724FEA18DE38D9BB219
:103DB000C91A89B22046FFF795FE30E7A18DE38D41
:103DC0009BB2C91A89B2E38D9BB2002B3FF427AF97
:103DD00000293FF424AF226802F10C0353E8003FAE
:103DE00023F490730C3242E800300028F3D12268AB
:103DF00002F1140353E8003F23F00103143242E8B8
:103E000000300028F3D1202384F83E3000232363C0
:103E1000226802F10C0353E8003F23F010030C3238
:103E200042E800300028F3D12046FFF75BFEF6E6BB
:103E30002046FFF704FDF2E62046FFF710FEEEE60F
:103E4000D53A000808B5806B036B012B02D0FFF751
:103E500013FE08BD818D4908FFF744FEF9E708B558
:103E60000346806B1B681B6813F4807F2BD10023F3
:103E7000C385026802F10C0353E8003F23F480730A
:103E80000C3242E800310029F3D1026802F1140338
:103E900053E8003F23F00103143242E800310029C7
:103EA000F3D1026802F1140353E8003F23F040030A
:103EB000143242E800310029F3D1202380F83E304B
:103EC000036B012B05D0036B012B0FD0FDF708F816
:103ED00008BD026802F10C0353E8003F23F0100311
:103EE0000C3242E800310029F3D1ECE7818DFFF775
:103EF000F9FDEDE730B583B0044613468162828553
:103F000000250564222280F83E20826B2048D06381
:103F1000A26B20481064A26B1F48D064A26B156589
:103F200020680A46011DA06BFEF72EFD019523684F
:103F30001A6801925B680193019B84F83C502369E5
:103F40005BB1226802F10C0353E8003F43F4807335
:103F50000C3242E800310029F3D1226802F1140347
:103F600053E8003F43F00103143242E800310029D6
:103F7000F3D1226802F1140353E8003F43F04003F9
:103F8000143242E800310029F3D1002003B030BDE3
:103F90005F3E0008453E00087D3A000808B590F8ED
:103FA0003E30DBB2202B0DD171B17AB190F83C30AC
:103FB000012B0DD0012380F83C3000230363FFF771
:103FC00099FF00E0022008BD0120FCE70120FAE78C
:103FD0000220F8E7034AD2F8883043F47003C2F8AD
:103FE0008830704700ED00E000B583B000230093F7
:103FF00001930F480F4A0260A7224260836041F29A
:104000008732C2608361FFF74FF950B900230093F4
:10401000019369460648FFF763FB28B903B05DF8D2
:1040200004FBFDF767F8F1E7FDF764F8F6E700BF7A
:10403000300300200014004000B585B00368244A16
:10404000934208D0234A934219D0234A93422AD05C
:1040500005B05DF804FB00210191204B1A6C42F081
:1040600004021A641B6C03F004030193019B0A46CB
:104070001E20FEF74FFE1E20FEF75CFEE8E7002143
:104080000291164B1A6C42F020021A641B6C03F06A
:1040900020030293029B0A463720FEF73BFE37209F
:1040A000FEF748FED4E7002103910C4B5A6C42F016
:1040B00002025A645B6C03F002030393039B0A46FB
:1040C0002E20FEF727FE2E20FEF734FEC0E700BFAD
:1040D0000008004000140040000401400038024085
:1040E00000B589B0002303930493059306930793C7
:1040F00003681B4A934205D01A4A934219D009B06B
:104100005DF804FB00230193174B1A6B42F0080281
:104110001A631B6B03F008030193019B4FF4704378
:10412000039302230493079303A91048FEF738FA78
:10413000E5E7002302930C4B1A6B42F480721A637A
:104140001B6B03F480730293029B442303930223AB
:1041500004930323079303A90548FEF721FACEE74A
:10416000000800400004014000380240000C0240FA
:104170000020024000B58FB000230A930B930C93EC
:104180000D9308930993019302930393049305936A
:10419000069307933048314A02605322426083609D
:1041A00044F61F62C260036180238361FFF77CF8DD
:1041B000002839D14FF480530A930AA92648FFF703
:1041C0007EF9002833D12448FFF79AF8002831D12E
:1041D00000230893099308A91F48FFF781FA60BBE1
:1041E00060230193002202920392059201A91A48CA
:1041F000FFF7EAF820BB04220DEB02011648FFF797
:10420000E3F800BB082201A91348FFF7DDF8E8B97D
:104210000C2201A91048FFF7D7F8D0B90E48FFF7D4
:104220005FFF0FB05DF804FBFCF764FFC2E7FCF72B
:1042300061FFC8E7FCF75EFFCAE7FCF75BFFCFE76B
:10424000FCF758FFD7E7FCF755FFDBE7FCF752FF19
:10425000DEE7FCF74FFFE1E77803002000080040AD
:1042600010B596B0002412941394149415941094DD
:10427000119409940A940B940C940D940E940F9439
:104280002022214601A800F0B9F83348334B0360DF
:10429000A7234360846044F61F63C36004614461E4
:1042A00080238361FFF700F800283FD14FF480534B
:1042B000129312A92848FFF702F9002839D126489D
:1042C000FFF71EF8002837D100231093119310A98F
:1042D0002148FFF705FA002831D160230993002314
:1042E0000A930B930C930D930E930F93042209A939
:1042F0001948FFF769F828BB0C2209A91648FFF7EF
:1043000063F810BB00230193029303930493059376
:104310004FF400520692089301A90F48FFF726FABE
:10432000B0B90D48FFF7DCFE16B010BDFCF7E2FE99
:10433000BCE7FCF7DFFEC2E7FCF7DCFEC4E7FCF7F6
:10434000D9FECAE7FCF7D6FED6E7FCF7D3FED9E7DD
:10435000FCF7D0FEE5E700BFE802002000040140C2
:10436000DFF834D00D480E490E4A002302E0D4583D
:10437000C4500433C4188C42F9D30B4A0B4C0023AD
:1043800001E013600432A242FBD3FFF723FE00F0EA
:1043900011F8FCF705FF7047000003200000002023
:1043A000240000201047000828000020C00300203F
:1043B000FEE7000070B50D4D0D4C641BA4100026E7
:1043C000A64209D10B4D0C4C00F07EF9641BA410E1
:1043D0000026A64205D170BD55F8043B984701362A
:1043E000EEE755F8043B98470136F2E70847000826
:1043F00008470008084700080C4700080244034625
:10440000934200D1704703F8011BF9E72DE9F0470B
:10441000089D0E4604460F46002B4AD194468C4513
:10442000B2FA82F260D942B1C2F12003974020FA79
:1044300003F30CFA02FC1F4394404FEA1C4E1FFA90
:104440008CF6B7FBFEF1230C0EFB117743EA074312
:1044500001FB06F098420AD91CEB030301F1FF3778
:1044600080F01581984240F21281023963441B1A90
:10447000A4B2B3FBFEF00EFB103344EA034400FB8E
:1044800006F6A6420AD91CEB040400F1FF3380F0C3
:104490000081A64240F2FD806444023840EA0140B7
:1044A000A41B00211DB1D4400023C5E90043BDE891
:1044B000F0878B4205D90DB1C5E9000100210846FE
:1044C000F5E7B3FA83F1002946D1B34202D3824221
:1044D00000F2F580841A66EB030201201746002DD6
:1044E000E5D0C5E90047E2E7002A40F09380A1EB60
:1044F0000C034FEA1C471FFA8CFE0121B3FBF7F6B1
:1045000007FB1630230C43EA00430EFB06F09842EB
:1045100008D91CEB030306F1FF3802D2984200F2DF
:10452000D08046461B1AA4B2B3FBF7F007FB10334A
:1045300044EA03440EFB00FEA64508D91CEB040424
:1045400000F1FF3302D2A64500F2B6801846A4EB74
:104550000E0440EA0640A5E7C1F120078B4022FA8D
:1045600007FC4CEA030C06FA01FE20FA07F426FACF
:1045700007F344EA0E0400FA01F84FEA1C404FEA40
:104580001449B3FBF0FE1FFA8CF600FB1E3349EA18
:1045900003430EFB06F9994502FA01F20BD91CEB15
:1045A00003030EF1FF3A80F08580994540F2828046
:1045B000AEF1020E6344A3EB0909A4B2B9FBF0F318
:1045C00000FB139944EA094403FB06F6A64208D906
:1045D0001CEB040403F1FF3068D2A64266D9023B0B
:1045E000644443EA0E40A41BA0FB02E6B4427346B7
:1045F000B14652D34FD05DB1B8EB030264EB09046E
:1046000004FA07F722FA01F31F43CC40C5E900740E
:1046100000214CE7C2F1200120FA01F30CFA02FC60
:1046200026FA01F1964033434FEA1C471FFA8CFEED
:10463000B1FBF7F007FB1016190C41EA064100FB2D
:104640000EF68E4204FA02F408D91CEB010100F1C7
:10465000FF382DD28E422BD902386144891B9BB280
:10466000B1FBF7F607FB161143EA014306FB0EF117
:10467000994208D91CEB030306F1FF3814D2994282
:1046800012D9023E63445B1A46EA004136E73946D6
:10469000EDE6184602E7F045ADD2BEEB020366EB4D
:1046A0000C060138B146A6E74646ECE7034698E714
:1046B0004046D3E7D6467EE76444023847E70846DB
:1046C0000DE7023E63442DE7F8B500BFF8BC08BC17
:1046D0009E467047F8B500BFF8BC08BC9E467047C0
:1046E0000006101600061016000000000102030468
:1046F0000000000000000000010203040607080992
:084700000CFDFF7F0100000029
:04470800390A000862
:04470C00110A000886
:1047100003FE98006B00000003F600013B0A006BEB
:1047200003F601013B0A006B0100000010000000CD
:044730000024F4006D
:04000005080043614B
:00000001FF
